0B00001CSESB01DAILY STK BAL  HKMK20080331                                                      /
100001HK0001000014HKD       1009000000000009 065025000000065025 065034000000065035             /
100001HK0001000014HKD       2000094900002002 000685652514464450 000685747414466453             /
100001HK0001000014HKD       3003000000000003 021675000000021675 021678000000021679             /
100001HK0001000014HKD       4004000000000004 028900000000028900 028904000000028905             /
100001HK0001000014HKD       5005000000000005 036125000000036125 036130000000036131             /
100001HK0001000014HKD       6006000000000006 043350000000043350 043356000000043357             /
100001HK0001000014HKD       7007000000000007 050575000000050575 050582000000050583             /
100001HK0001000014HKD       8008000000000008 057800000000057800 057808000000057809             /
100001HK0001000014HKD       9009000000000009 065025000000065025 065034000000065035             /
100001HK0001000014HKD      10000000000000100 000000000000722500 000000000000722601             /
100001HK0001000014HKD      11000034567890145 000249753006297625 000249787574187771             /
100001HK0001000014HKD      12000000000000100 000000000000722500 000000000000722601             /
100001HK0001000014HKD      13000013345678901 000096422530059725 000096435875738627             /
100001HK0001000014HKD      14000014345678901 000103647530059725 000103661875738627             /
100001HK0001000014HKD      15000015345678901 000110872530059725 000110887875738627             /
100001HK0001000014HKD      16000016345678901-000118097530059725-000118113875738627             /
100001HK0001000014HKD      17000017345678901-000125322530059725-000125339875738627             /
100001HK0001000014HKD      18000018345678901-000132547530059725-000132565875738627             /
100001HK0001000014HKD      19001654321012345 011952469314192625 011954123635204971             /
100001HK0001000014HKD      20000092999999999 000671924999992775 000672017999992775             /
100001HK0001000014HKD12345678009004000001999 065053900014442775 065062904014444775             /
200001HK00010000140000072250000000100000000000000010007225001                                  /
100002HK0002007356HKD       1100000000000001 118000000000001180 118100000000001183             /
100002HK0002007356HKD       4100000000000004 118000000000004720 118100000000004726             /
100002HK0002007356HKD      20200000000000002 236000000000002360 236200000000002364             /
200002HK00020073560000011800000000100000000000000010001180002                                  /
100014HK0014000126HKD       1000000001022010 000000000296382900 000000000297404924*            /
200014HK00140001260000002900000000100000000000000010000290014*                                 /
100015BMG932121012GBP       1000000000001000 000000000000290000 000000000000291015             /
100015BMG932121012GBP       5000000000010000 000000000002900000 000000000002910015             /
100015BMG932121012GBP      20000000000100000 000000000029000000 000000000029100015             /
200015BMG9321210120000002900000001136650000000000113665290015                                  /
100016HK0016000132HKD       1000000000002000 000000000000000000 000000000000002016             /
100016HK0016000132HKD      16000010000000001-000000000000000000 000000010000000017             /
100016HK0016000132HKD12345678001234567890123 000000000000000000 000001234567890139             /
200016HK00160001320000000000000000100000000000000010000000016                                  /
100364ISINSTK00364USD       1100000000000001-100000000000001000-100100000000001365*            /
100364ISINSTK00364USD       2100000000000002-100000000000002000-100100000000002366*            /
100364ISINSTK00364USD       3100000000000003-100000000000003000-100100000000003367*            /
100364ISINSTK00364USD       5100000000000005 100000000000005000 100100000000005369*            /
100364ISINSTK00364USD      16100000000000016-100000000000016000-100100000000016380*            /
200364ISINSTK003640000010000000000101000000000000010101000364*                                 /
108933BMG348461085CNY       1000000000002000 000000000002450000 000000000002460933*            /
208933BMG3484610850000012250000000100000000000000010001233933*                                 /
7616023675513465350 000000000002450000                                                         /
80000002023200003700000000011210000616023675515915350                                          /
9000963220432007315419775610362620235420739004570857782                                        /