0B00001CCLTN05FCS            HKMK2008032820080401                                                                                           /
1100001HK00010000141 P40063659S1001671509000000000117051706C0000100000001000000100000000001000000HKDA 00002000000000000000 YAL00000001011001/
1100001HK00010000142IP40063763S1002671509000000000217051706C0000100000003000000200000000006000000HKDM 00006000000000000000 NAN00000006023001/
1100001HK00010000142IP40063764S1003671509000000000317051706C0000100000003000000200000000006000000HKDM 00006000000000000000 NAN00000006023001/
1100001HK00010000142IP40063765S1004671509000000000417051706C0000100000003000000200000000006000000HKDM 00006000000000000000 NAN00000006023001/
1108772HK00010087721 P40063661B1005671509000000000517051706C0000100000002000000100000000002000000CNYU 00002000000000000000 NPL00000002020772/
508772HK0001008772CNSP4006366100000002000 0000002000000-CNY00772HK000100077200000002000 00000002013544                                      /
1108772HK00010087722IP40063863B1006671509000000000617051706C0000100000004000000300000000012000000CNYM 00002400000000000000 C N00000012042772/
508772HK0001008772IT P4006386300000004000 0000012000000-CNY00772HK000100077200000004000 00000012017544                                      /
1108772HK00010087722IP40063864B1007671509000000000717051706C0000100000004000000300000000012000000CNYM 00002400000000000000 C N00000012042772/
508772HK0001008772IT P4006386400000004000 0000012000000-CNY00772HK000100077200000004000 00000012017544                                      /
1108772HK00010087722IP40063865B1008671509000000000817051706C0000100000004000000300000000012000000CNYM 00002400000000000000 C N00000012042772/
508772HK0001008772IT P4006386500000004000 0000012000000-CNY00772HK000100077200000004000 00000012017544                                      /
1109771HK00010097711 P40063654S1001671509000000000117051706C0000100000100000000100000000100000000HKDA 00002000000000013333 YAL00000100133104/
1109771HK00010097711 P40063654S1001671509000000000217051706C0000100000001000000100000000001000000HKDA 00002000000000013333 YAL00000001034104/
1109771HK00010097711 P40063654B1001671509000000000317051706C0000100000010000000100000000010000000HKDA 00002000000000013333    00000010043104/
509771HK0001009771CNSP4006365400000091000-0000091000000 HKD09771HK000100077200000182000-00000091292542                                      /
1109771HK00010097712IP40063963S1002671509000000000417051706C0000100000002000000200000000008000000HKDM 00006000000000040000 NAN00000008071771/
509771HK0001009771IT P4006396300000002000-0000008000000 HKD09771HK000100077200000004000-00000008025542                                      /
1109771HK00010097712IP40063964S1003671509000000000517051706C0000100000003000000200000000012000000HKDM 00006000000000040000 NAN00000012072771/
509771HK0001009771IT P4006396400000003000-0000012000000 HKD09771HK000100077200000006000-00000012028542                                      /
1109771HK00010097712IP40063965S1004671509000000000617051706C0000100000004000000200000000016000000HKDM 00006000000000040000 NAN00000016073771/
509771HK0001009771IT P4006396500000004000-0000016000000 HKD09771HK000100077200000008000-00000016031542                                      /
2100001HK000100001416715011 S1001671509000000000917051706C0000100000001000000100000000001000000HKDA 0000000013333 YAL00000001024334         /
2100001HK000100001416715032IS1002671509000000001017051706C0000100000003000000200000000006000000HKDM 0000000040000 NAN00000006063001         /
2100001HK000100001416715011 S1003671509000000001117051706C0000100000001000000100000000001000000HKDA 0000000013333 YAL00000001024334         /
2100001HK000100001416715032IS1004671509000000001217051706C0000100000003000000200000000006000000HKDM 0000000040000 NAN00000006063001         /
2100002HK000200735616715021 B1005671509000000001317051706C0000100000002000000100000000002000000HKDU 0000000000000 NPL00000002012002         /
2100002HK000200735616715042IB1006671509000000001417051706C0000100000004000000300000000012000000HKDM 0000000000000 C N00000012034002         /
2100002HK000200735616715021 B1007671509000000001517051706C0000100000002000000100000000002000000HKDU 0000000000000 NPL00000002012002         /
2100002HK000200735616715042IB1008671509000000001617051706C0000100000004000000300000000012000000HKDM 0000000000000 C N00000012034002         /
1200001HK0001000014           S1001671509000000001712344321B0000200000010001000010000000001000100HKDMX00000000000000000000 NAE00000001011102/
1200001HK0001000014           S1002671509000000001812344321B0000200000010001000010000000001000100HKDMX00000000000000000000 NAE00000001011102/
1200001HK0001000014           S1003671509000000001912344321B0000200000010001000010000000001000100HKDMX00000000000000000000 NAE00000001011102/
1200001HK0001000014           S1004671509000000002012344321B0000200000010001000010000000001000100HKDMX00000000000000000000 NAE00000001011102/
1200001HK0001000014           B1005671509000000002112344321B0000200000010001000010000000001000100HKDMX00000000000000000000 NAE00000001011102/
1200001HK0001000014           B1006671509000000002212344321B0000200000010001000010000000001000100HKDMX00000000000000000000 NAE00000001011102/
1200001HK0001000014           B1007671509000000002312344321B0000200000010001000010000000001000100HKDMX00000000000000000000 NAE00000001011102/
1200001HK0001000014           B1008671509000000002412344321B0000200000010001000010000000001000100HKDMX00000000000000000000 NAE00000001011102/
2200001HK00010000141671501  S1001671509000000002517051706C0000100000001000000100000000001000000HKDA 0000000000000 YAL00000001011001         /
2200001HK00010000141671503  S1002671509000000002617051706C0000100000003000000200000000006000000HKDM 0000000000000 NAN00000006023001         /
2200001HK00010000141671501  S1003671509000000002717051706C0000100000001000000100000000001000000HKDA 0000000000000 YAL00000001011001         /
2200001HK00010000141671503  S1004671509000000002817051706C0000100000003000000200000000006000000HKDM 0000000000000 NAN00000006023001         /
2200002HK00020073561671502  B1005671509000000002917051706C0000100000002000000100000000002000000HKDU 0000000000000 NPL00000002012002         /
2200002HK00020073561671504  B1006671509000000003017051706C0000100000004000000300000000012000000HKDM 0000000000000 C N00000012034002         /
2200002HK00020073561671502  B1007671509000000003117051706C0000100000002000000100000000002000000HKDU 0000000000000 NPL00000002012002         /
2200002HK00020073561671504  B1008671509000000003217051706C0000100000004000000300000000012000000HKDM 0000000000000 C N00000012034002         /
2300002HK000200735616715011 S1001671509000000002517051706C0000100000001000000100000000001000000HKDA 0000000013333 YAL00000001024335         /
2300002HK000200735616715032IS1002671509000000002617051706C0000100000003000000200000000006000000HKDM 0000000040000 NAN00000006063002         /
2300002HK000200735616715011 S1003671509000000002717051706C0000100000001000000100000000001000000HKDA 0000000013333 YAL00000001024335         /
2300002HK000200735616715032IS1004671509000000002817051706C0000100000003000000200000000006000000HKDM 0000000040000 NAN00000006063002         /
3100001HK00010000141BB10001234567890123456100014321B0000100012345678123451231234567890112HKDM12345120000000000000 CPE01234592580914         /
3100001HK00010000141IB10010000000000002006100014322B0000200000002000000011230000010000200HKDM00002000000000000000 CAE00000010003324         /
3100001HK00010000141HS10000000000000002007100014323B0000100012345678000030000000010000300HKDO00003000000000000000 MPE00000022348979         /
3100001HK00010000141BS10000000000000002008100014324B0000200000002000000040000000010000400HKDE00004000000000000000  RL00000010006401         /
3100001HK00010000142IB10001234567890123456100011234B0000800012345678012341231234567890112HKDA00005000000000000000 YAE01234581469914         /
3100001HK00010000142IB10010000000000002006100011234B0000800012345678012341230000000001212HKDA00006000000000000000 YAL00000013581014         /
3100001HK00010000142IS10000000000000002007100011234B0000800012345678012341230000000001312HKDA00007000000000000000 ENY00000013581114         /
3100001HK00010000142IS10000000000000002008100011234B0000800012345678012341230000000001412HKDA00008000000000000000 ENY00000013581214         /
3200001HK0001000014 IB10001234567890123456100011234B0000800012345678012341230000000001512HKDA00009000000000000000 YAL00000013581314         /
3200001HK0001000014 IS10000000000000002007100011234B0000800012345678012341230000000001612HKDA00010000000000000000 ENY00000013581414         /
410001NCP 10001 SNAME1C00001HK000100001400000123456780001234567890 HKD000000000200000 000000000200000 00001234967891                        /
410001NCP 10001 SNAME1I00003HK000300003800000000030000000000030000-HKD000000000200000-000000000200000-00000000430003                        /
410001NCP 10001 SNAME2 00108HK010800062800000000300010000030000001 HKD000000000200000 000000000000000 00000030200109                        /
8000014000008000005000009000016000004                                                                                                       /
90000093758000000000002720080000000608000000000000310000800000000000000373331000000000311347897                                             /