00001123456                       20231212ATI BATCH INPUT                                          
100700                   1       200000000100                                        00000000000800
2000100007000000000000010000000000000000800                                                        
